:020000040000fa
:100000000200de021003000000000002100b0000de
:10001000000000021013000000000002101b00008e
:10002000000000021023000000000002102b00005e
:10003000000000021033000000000002103b00002e
:10004000000000021043000000000002104b0000fe
:10005000000000021053000000000002105b0000ce
:10006000000000021063000000000002106b00009e
:10007000000000021073000000000002107b00006e
:10008000000000021083000000000002108b00003e
:10009000000000020a771200f0b900030200d8e461
:1000a000900002781b79028002f0a3d8fcd9fa9064
:1000b000011caa82ab839000f6780f79018015e4c9
:1000c00093a3ac82ad838a828b83f0a3aa82ab8395
:1000d0008c828d83d8e9d9e712049e120a9675d0d6
:1000e0000075813f75188075931e5392fe0200962d
:1000f00079015392fe22001000100000f800ffff6b
:1001000000100000e4936670130874019366700c8d
:1001100008740293667005087403936622c3e09620
:1001200008a3e09608a3e09608a3e09622c3e49310
:100130009608740193960874029396087403939634
:10014000226016080808c6c313c618c613c618c608
:1001500013c618c613c6d5e0ea22e026f008a3e0cd
:1001600036f008a3e036f008a3e036f022e056f6b9
:1001700008a3e056f608a3e056f608a3e056f622d8
:10018000e0f608a3e0f608a3e0f608a3e0f622c92b
:10019000c0e0e7f20809e7f20809e7f20809e7f228
:1001a000d0e0f922e0faa3e0fba3e0fca3e0fd220b
:1001b000eaf0a3ebf0a3ecf0a3edf022cac0e0e676
:1001c000f30908dafad0e0fa22e4735392fed083fe
:1001d000d0822518f8c518c39824fbcef208e52074
:1001e000f208e9c0e07908e709f208defad0e0f9a0
:1001f000eff208d0e0fed0e0f208eef208e473a8d7
:1002000018e2fe08e208f520e9c0e07908e208f704
:1002100009dffae208ffd0e0f9e208c0e0e208c036
:10022000e088185392fe22e584f208e585f222e286
:1002300008f584e2f5852274028000c9c0e0e51863
:10024000c399f518c91201bcd0e0f922d083d0823d
:10025000ecc0e0edc0e0eec0e0efc0e0e493a3fc52
:10026000e493a3fde493a3fee493a3ffef4e4d4c70
:1002700060151202c8ec24fffced34fffdee34ffe4
:10028000feef34ffff80e5e493a3fce493a3fde4d9
:1002900093a3fee493a3ffef4e4d4c6015120305ac
:1002a000ec24fffced34fffdee34fffeef34ffffe6
:1002b00080e5d0e0ffd0e0fed0e0fdd0e0fce493ac
:1002c000a3c0e0e493c0e022c0e0c0f088f01201d7
:1002d0002da8f04007120104a8f0701aa3a3a3a34d
:1002e00012012da8f0a3a3a3a34013d0f0d0e0d017
:1002f000e0d0e00202b2a3a3a3a3a3a3a3a3a3a35a
:10030000d0f0d0e022c0e0c0f088f0120104a8f0e4
:10031000a3a3a3a3700bd0f0d0e0d0e0d0e0020202
:10032000b2a3a3d0f0d0e02274022408f874003401
:1003300000f9e4e9f8f5d374022408f5d25392feeb
:1003400022a2afe433f8c2af5392fe906270e0a2f3
:10035000e740f5e9c333906272f0906270e0d2e05a
:10036000f0906270e0a2e740f8e8fae8a2e092af0d
:100370005392fe2274fa1201cba2afe433f8c2af5b
:10038000ecfeedffe4effe900002f0ec900003f0d5
:100390009000047462f09000057473f0900006748d
:1003a00000f0e9900007f09000087412f090000946
:1003b0007442f0eafeebffe4effe906272f0ea9026
:1003c0006271f07e027f00e4effef5d575d4027510
:1003d000d601906270e0d2e1f0906270e0a2e74056
:1003e000f8e8fee8a2e092af7f010201ff5392fe1f
:1003f000906276e054706430700474038002740775
:10040000f875c6807480659e70fa9062707408f00a
:1004100088c790ff0ae0f5f190ff0be0f5f390ff3d
:100420000ce0f5f490ff0de0f5f590ff02e0f586a5
:1004300090ff03e0f5c490ff04e0f5c590ff05e0f0
:10044000f5c290ff06e0f5f890ff07e0f5fb90ff9e
:1004500008e0f5fc90ff09e0f5faa2fe500ee5f188
:10046000a2e14008e5ff543f4440f5ff5392fe22cd
:1004700074fa1201cb7900ecfeedffee24fffcefe5
:1004800034fffdee4f60128a828b83e029f98a8265
:100490008b83a3aa82ab8380de7f010201ffe51874
:1004a00024ecf5187e005392fe900001e090001ab3
:1004b000f07ea5e5c7f50975c7007c007d707a0060
:1004c0007b90120470e92efe8509c77508037f0131
:1004d000efc39508501ae5c7f5098fc77c007d80ea
:1004e0007a007b80120470e92efe8509c70f80e038
:1004f000ee7027e59d54186410700890001ae0a271
:10050000e040179000017403f0059290011ce0f5a3
:1005100082a3e0f58305921201c91203ed90000158
:100520007400f01203281208da7480c0e0e518a8fd
:1005300018d0e0f27404c0e0e5182401f8d0e0f22d
:100540007409c0e0e5182402f8d0e0f27400c0e0bd
:10055000e5182403f8d0e0f2750c00750d00750e57
:1005600000750f00e5182404f8740c12018fe4f5ef
:100570000af50b780a1202377c007d00e518240288
:10058000faab93e5182403f8e22404f91205980560
:10059000180518120a6c80fb74f71201cb15181598
:1005a00018a81812022789088a848b85ecfeedffb3
:1005b000e518240bf8e2f50a08e2f50b780a1202b6
:1005c00037eefceffdaa84ab85a9081208de0518fa
:1005d0000518a81812022f051805187f040201ff3c
:1005e00074f71201cbe518249cf518eafeebff8e98
:1005f000828f837808120180900122780812016da1
:10060000780812024c000000000500000000000005
:10061000004f08000009004f08000009012d0600e6
:100620000009021c0700000903ec07cb0890012613
:1006300078081201808e828f83a3a3a3a378081267
:10064000011d50637400c0e0e5182450f8d0e0f2ba
:100650007402c0e0e5182451f8d0e0f27409c0e05b
:10066000e5182452f8d0e0f27401c0e0e5182453f4
:10067000f8d0e0f2e5182454f87480f2087401f21e
:10068000e4f508f50978081202377c007d00e518ca
:100690002452faab93e5182453f8e22404f9120526
:1006a000980518051880728e828f83a3a3a3a312c6
:1006b00001a490011e1201b07400c0e0e518243cb2
:1006c000f8d0e0f27402c0e0e518243df8d0e0f282
:1006d0007409c0e0e518243ef8d0e0f27401c0e0ef
:1006e000e518243ff8d0e0f2e5182440f87400f251
:1006f000087400f2e4f508f50978081202377c0066
:100700007d00e518243efaab93e518243ff8e22477
:1007100004f9120598051805180208cb90011e78f7
:1007200008120180e50854fff8e5095407f9e84983
:10073000701490011e7808120180740b7808120161
:1007400041a9081203418e828f83a3a3a3a3e0f9da
:10075000ee2405fcef3400fd90011e7808120180a4
:1007600074027808120141aa08ab091203748e8240
:100770008f83a3a3a3a3e0f508e4f509f50af50b1d
:1007800090011e780812015a7400c0e0e518242870
:10079000f8d0e0f27402c0e0e5182429f8d0e0f2c5
:1007a0007409c0e0e518242af8d0e0f27402c0e031
:1007b000e518242bf8d0e0f2e518242cf87400f2a8
:1007c000087400f2e4f508f50978081202377c0095
:1007d0007d00e518242afaab93e518242bf8e224cf
:1007e00004f9120598051805180208cb7400c0e03a
:1007f000e5182414f8d0e0f27402c0e0e5182415de
:10080000f8d0e0f27409c0e0e5182416f8d0e0f260
:100810007403c0e0e5182417f8d0e0f2e5182418b6
:10082000f87400f2087400f2e4f508f5097808128b
:1008300002377c007d00e5182416faab93e51824f6
:1008400017f8e22404f912059805180518807c8e23
:10085000828f83a3a3a3a3e0606c7480c0e0e5183b
:10086000a818d0e0f27404c0e0e5182401f8d0e044
:10087000f27409c0e0e5182402f8d0e0f27400c078
:10088000e0e5182403f8d0e0f2750800750900755a
:100890000a00750b00e5182404f8740812018fe4af
:1008a000f508f50978081202377c007d00e5182468
:1008b00002faab93e5182403f8e22404f912059830
:1008c00005180518800575c90880fe92f0e5182402
:1008d00064f518a2f07f040201ff5392fe2274fa1d
:1008e0001201cb15181518a818120227e9fee518f1
:1008f0002408f8e2f58208e2f583059290001be0f7
:10090000a2e05040eeff74ff2ffeef6018e586a2d4
:10091000e040fa8a848b85e0f5c18a848b85a3aa9e
:1009200084ab8580dfecf8edf9e824fffce934ffc7
:10093000fde849600fe586a2e040fa5392fee0f53b
:10094000c1a380e143920190001be05402603e8eff
:100950000874ff2508fee5086016a2f840fc8a84aa
:100960008b85e0f5f98a848b85a3aa84ab8580df2b
:10097000ecf8edf9e824fffce934fffde849600def
:10098000a2f840fc5392fee0f5f9a380e3a8181208
:10099000022f051805187f010201ffecf8edf9e8b8
:1009a00024fffce934fffde849604ae586a2e24005
:1009b00004a2fa50f6e586a2e2501a5392fe900085
:1009c0001be04401f0e5c18a828b83f08a828b832d
:1009d000a3aa82ab83a2fa50c25392fe90001be0fe
:1009e0004402f0e5f98a828b83f08a828b83a3aa82
:1009f00082ab8380a65392fe2274fa1201cb1518a3
:100a00001518a81812022775841c7585007c047db2
:100a1000007a1c7b0012099b0592e0f879005407cc
:100a2000f8e95400f9e4c8f9e8fee9ff8584828515
:100a300085830592a3e0f879004efee94fffee4f63
:100a40006011eefceffde5842404fae5853400fb3b
:100a500012099baa84ab851205e07a017b00a818d5
:100a600012022f051805187f010201ff1209f95320
:100a700092fe225392fe2274fa1201cb1518151819
:100a8000eafeebffa818eef208eff2aa18ab937992
:100a900001120a7380ee12009322ffffffffffff97
:100aa000ffffffffffffffffffffffffffffffff56
:100ab000ffffffffffffffffffffffffffffffff46
:100ac000ffffffffffffffffffffffffffffffff36
:100ad000ffffffffffffffffffffffffffffffff26
:100f000012010002000000205824feff0000010230
:100f1000030109021b0001010480250904000000ef
:100f2000fe01020409210d03e84000010104030948
:100f300004120342006c00750065006700690067d9
:100f400000610016034c006f007700200045006e22
:100f50000065007200670079000a03310032003337
:100f6000003400080344004600550000ffffffff67
:100f7000ffffffffffffffffffffffffffffffff81
:100f8000ffffffffffffffffffffffffffffffff71
:100f9000ffffffffffffffffffffffffffffffff61
:100fa000ffffffffffffffffffffffffffffffff51
:100fb000ffffffffffffffffffffffffffffffff41
:100fc000ffffffffffffffffffffffffffffffff31
:100fd000ffffffffffffffffffffffffffffffff21
:100fe000ffffffffffffffffffffffffffffffff11
:100ff000ffffffffffffffffffffffffffffffff01
:101000000210f702342cffffffffff0227bdffff96
:10101000ffffff022854ffffffffff022908ffff29
:10102000ffffff0229f3ffffffffff023c76fffff8
:10103000ffffffffffffffffffffff0228acffffe7
:10104000ffffff02282dffffffffffffffffffff56
:10105000ffffff023412ffffffffffffffffffff55
:10106000ffffffffffffffffffffff022708ffff5c
:10107000ffffff02297bffffffffff022783ffff28
:10108000ffffff0234377582f575837f74001211fc
:1010900012121133b900030210e1e479347802b876
:1010a00000028004f709d8fce490030278b67906c0
:1010b0008002f0a3d8fcd9fa9008b7aa82ab83903b
:1010c000113978d779028015e493a3ac82ad838a75
:1010d000828b83f0a3aa82ab838c828d83d8e9d9db
:1010e000e775824a7583da74021211127582f075ff
:1010f00083df740212111275d00075813f753100c3
:10110000753202753303759f007593005392fe028a
:101110001091c09ff59fe473d09f225392fed0831d
:10112000d082c09fe493c0e0740193c0e074029346
:10113000f59f2279015392fe227e3d883d923d9c8f
:101140003da63db03dba3dc43dce3dd83de23dec6f
:101150003df63d003e0a3e143e1e3e283e323e3cd9
:101160003e463e503e5a3e643e6e3e783e823e8c47
:101170003e963ea03eaa3eb43ebe3ec83ed23edcb7
:101180003ee63ef03efa3e043f0e3f183f223f2c23
:101190003f363f403f4a3f543f5e3f683f723f7c8f
:1011a0003f863f903f9a3fa43fae3fb83fc23fccff
:1011b0003fd63fe03fea3ff43ffe3f084012401c6d
:1011c00040264030403a4044404e40584062406cd7
:1011d00040764080408a4094409e40a840b240bc47
:1011e00040c640d040da40e440ee40f84002410cb6
:1011f00041164120412a4134413e4148410080018d
:1012000000010000000080000097159d15a315a99e
:1012100015af15b5150115f316d516591741174712
:1012200017c71b8518c51dfd185317f91651165ff2
:1012300017fb14b50301ffffff0000000080ffff54
:10124000ffff0400000000000000c00000000300d9
:1012500000020000fd1801020300007d1a00000fcb
:1012600000c3a88ee8b19dcf7f5eb98b9f41efb0e0
:1012700055f401fa00960064004b0032001e001481
:1012800000d6be898e00010602121315142941767c
:1012900071ffc1fbe84c90728be7b3518963ab23bc
:1012a0002302841872aa612f3b51a8e53749fbc974
:1012b000ca0c18532cfd45e300400000ffffffff60
:1012c000faffffff0000800062000000070000003e
:1012d00005000600070000000100010000010001f8
:1012e00002020300020000000000020201000240ae
:1012f000420f0019000000093d0000e4fffffffb62
:10130000349b5f800000800010000000000000128d
:10131000111b0bc90212111b21c90212111ba9c9f1
:101320000212111b3aca0212111bfad50112111b2b
:101330000fd60112111b1ed60112111b0fd701125d
:10134000111b27d70112111b36d70112111b4cd7c5
:101350000112111b58d70112111b99d70112111b31
:10136000e0d70112111b32d80112111b60d80112f3
:10137000111bcad80112111be6d80112111b21d969
:101380000112111b50d90112111be3d90112111bbb
:1013900059da0112111bb1da0112111beada01123a
:1013a000111b3cdb0112111b77db0112111ba3dbac
:1013b0000112111bdedb0112111b42dc0112111b99
:1013c0006ddc0112111bbddc0112111b18dd0112b5
:1013d000111b1bdd0112111b79dd0112111bb0dd88
:1013e0000112111be8dd0112111b20de0112111b7d
:1013f00057de0112111b81de0112111b8ade011260
:10140000111bd5de0112111bf3e00112111b57e273
:101410000112111b94e20112111bd4e20112111be3
:1014200001e30112111b4de30112111b78e30112bc
:10143000111bfce30112111bafe40112111b27e584
:101440000112111b87e50112111b92e50112111bfc
:10145000bce50112111bcae50112111b69e601125c
:10146000111bede60112111b37e70112111b6be78f
:101470000112111b89e70112111babe70112111bad
:10148000d0e70112111bece70112111b62e80112f7
:10149000111ba2e80112111b1de90112111b33e9f6
:1014a0000112111b5de90112111b93e90112111bbd
:1014b000a2e90112111befe90112111bfee9011251
:1014c000111b16ea0112111b3fea0112111b6feaf0
:1014d0000112111b9cea0112111bafea0112111b30
:1014e000e7ea0112111b4ceb0112111b7deb0112fb
:1014f000111baaeb0112111bb6eb0112111bbceb65
:101500000112111b69ec0112111bb3ee0112111b28
:1015100038ef0112111b5eef0112111b84ef011253
:10152000111b9fef0112111bd3ef0112111b05f0cc
:101530000112111b3bf00112111b73f00112111b60
:10154000b8f00112111bfcf00112111b40f1011245
:10155000111bbff10112111b24f20112111b7ef2ab
:101560000112111bfaf20112111b3ff30112111ba0
:10157000f1f30112111bb5f40112111babf50112ad
:10158000111baef50112111bc3f50112111bd8f589
:101590000112111b16d60212111b64d60212111b66
:1015a0007ad60212111b90d60212111ba6d6021275
:1015b000111bc7d60212111bddd60212111bf3d666
:1015c0000212111b14ae0212111b5bae0212111b90
:1015d0009eae0212111bbcae0212111b34af0212de
:1015e000111ba5af0212111bddaf0212111b3bb084
:1015f0000212111b56b00212111b83b00212111bf2
:10160000e1b00212111bf8b00212111b1ab1021242
:10161000111b45b10212111b7ab10212111ba6b1a6
:101620000212111bdfb10212111b06b20212111bb2
:1016300039b20212111b48b20212111b51b202122e
:10164000111bc7b20212111befb30212111bacb96e
:101650000212111b86ba0212111b92bb0212111b3d
:101660002bbc0212111b96bc0212111bd1bc021220
:10167000111b20bd0212111b69bd0212111bb2bd4c
:101680000212111b80be0212111b97be0212111b07
:10169000aebe0212111bbcbe0212111bcebe021244
:1016a000111be3be0212111bf7be0212111b05bf74
:1016b0000212111b11bf0212111b6ad90212111b57
:1016c00097d90212111b00800212111ba78002126f
:1016d000111ba28c0212111b718e0212111bc1fd73
:1016e0000112111b29fe0112111b4dfe0112111bcb
:1016f0009cfe0112111bf1fe0112111b98ff011239
:10170000111bb1ff0112111bedf50112111b0af69d
:101710000112111b25f70112111b86f70112111b73
:1017200031f80112111bb0f90112111b38fa011224
:10173000111b7ffa0112111be8fa0112111b46fb63
:101740000112111b9bfb0112111b16fc0112111b34
:10175000a7fc0112111b30fd0112111bf0ff011239
:10176000111bf4ff0112111bf6ff0112111bfcffec
:101770000112111b44a60212111b5ca60212111bbe
:1017800087a60212111bd4a60212111beda602128b
:10179000111b1fa70212111b5da70212111b8fa79d
:1017a0000212111b06a80212111b25a80212111bfe
:1017b0004aa80212111ba1a80212111b38ad021275
:1017c000111becad0212111bf4db0212111b0cdc1d
:1017d0000212111b7ddc0212111bc0dc0212111b54
:1017e00064c40212111bbdc40212111b25c50212d2
:1017f000111b3dc50212111b67c50212111b81c5c9
:101800000212111bb5c50212111b0bc60212111bcd
:1018100046c60212111bf6c60212111b1ac702128b
:10182000111ba2c70212111bcdc70212111b0fc838
:101830000212111b34c80212111b48c80212111bdc
:101840005dc80212111b05c90212111b1dbf021235
:10185000111b2bbf0212111b5cbf0212111b85bf93
:101860000212111b93bf0212111bdabf0212111bcd
:1018700099c00212111b0ec10212111b6bc1021280
:10188000111b97c10212111b10c20212111becc2d4
:101890000212111bf7c20212111b1cc30212111bf0
:1018a00070c30212111bd6c30212111b08c402120c
:1018b000111bf0de0212111b10df0212111b39dfa7
:1018c0000212111b0cde0212111b20de0212111b70
:1018d00077de0212111ba1df0212111bd9ff0112c8
:1018e000111b89dd0212111bb6dd0212111b2e9c89
:1018f0000212111b959c0212111bac9c0212111baf
:10190000f09c0212111b369d0212111b9c9d0212ab
:10191000111bf09e0212111b18a00212111bbaa07b
:101920000212111bdea00212111b20a10212111bb8
:10193000cea10212111b1ca20212111b79a20212cb
:10194000111b8ca20212111b8ca30212111baca43e
:101950000212111b22a50212111bac460012111b10
:1019600057480012111bd4480012111b274a0012bd
:10197000111b994a0012111bd34a0012111b8c4be8
:101980000012111b1a4c0012111bdd4c0012111b0e
:10199000054e0012111bf94e0012111b3a50001295
:1019a000111ba2500012111b0a510012111b87516a
:1019b0000012111b3d520012111baf520012111bdd
:1019c00048530012111bae530012111b1c5400127d
:1019d000111b71540012111b07550012111bba552f
:1019e0000012111b81560012111b3e580012111bd0
:1019f000895a0012111bce5a0012111b4a5b0012a9
:101a0000111bb25b0012111b005c0012111b8c5ddc
:101a10000012111b2c5e0012111b9d5e0012111b87
:101a20001d600012111b7e600012111b94610012d8
:101a3000111b83620012111b9f630012111bfe64b5
:101a40000012111bb5660012111b65690012111bf3
:101a5000f2690012111baf6a0012111b9c6b00127d
:101a6000111b006c0012111b5c700012111bc27262
:101a70000012111b94730012111b0a760012111b25
:101a80002c770012111bb7780012111bce780012b0
:101a9000111bb8cc0212111bf6cc0212111b5dcd2a
:101aa0000212111b89cd0212111b55ce0212111bfd
:101ab0002ccf0212111be2da0212111b3bdb0212c5
:101ac000111b9cdb0212111b00800112111b1e80d6
:101ad0000112111b3b800112111b58800112111bb6
:101ae000da800112111b6d810112111b3f8301125b
:101af000111ba5830112111be9830112111b2684fe
:101b00000112111b5b840112111b9d840112111b18
:101b10000b850112111bb9850112111bd185011210
:101b2000111b0d870112111b35890112111bc1896f
:101b30000112111bf5890112111b1c8b0112111bc3
:101b4000478c0112111b6e8c0112111baa8c011201
:101b5000111bdd8c0112111bc5900112111bed90a0
:101b60000112111b39910112111bc2960112111b96
:101b700008970112111b48970112111bfe970112c1
:101b8000111bd5980112111b339b0112111ba49c30
:101b90000112111b159d0112111b4f9f0112111be8
:101ba000c79f0112111b0ba00112111b6fa0011284
:101bb000111bc2a00112111b5ea10112111ba7a1d2
:101bc0000112111b02a20112111b0ca20112111b06
:101bd00049a30112111bdca30112111ba8a40112bd
:101be000111b54a50112111b05a70112111b27a7d8
:101bf0000112111b44a90112111b99aa0112111bf8
:101c000036ab0112111b87ab0112111b1fac011265
:101c1000111b0fae0112111b20ae0112111b2aaeb7
:101c20000112111b19b00112111b76b00112111b08
:101c3000b3b00112111b1eb10112111b4db10112e3
:101c4000111bf6b10112111b71b20112111bd2b29c
:101c50000112111b48b30112111b7fb30112111b9a
:101c6000b4b30112111bd2b30112111b31b4011212
:101c7000111b3fb40112111b7eb40112111befb4f2
:101c80000112111bc6d70212111b6ad80212111bb6
:101c90008ed80212111bd9d80212111b18d90212a8
:101ca000111bbbff0112111b0b8f0212111b378f6f
:101cb0000212111b838f0212111bd08f0212111bf3
:101cc0004c900212111bbc920212111bee930212d5
:101cd000111bf6960212111b05980212111bfb989c
:101ce0000212111b829a0212111bfd9a0212111b81
:101cf0000f9c0212111b72cf0212111b9ecf0212f7
:101d0000111bb5cf0212111b4fd00212111b7bd138
:101d10000212111bbbb50112111b22b60112111bbd
:101d20003fb60112111b6cb60112111bd5b6011280
:101d3000111b01b70112111b35b70112111b8db711
:101d40000112111bbab70112111b1db80112111b90
:101d500078b80112111b3db90112111bbbb9011258
:101d6000111b5dbb0112111b15bc0112111bccbe56
:101d70000112111b44c20112111b86c20112111b58
:101d8000dbc20112111b93c30112111b70c501129a
:101d9000111b14c60112111b55c60112111ba3c63b
:101da0000112111bfbc60112111b21c70112111bcd
:101db00074c70112111bb5c70112111b36c90112dc
:101dc000111b50ca0112111b61ca0112111bbfcb9a
:101dd0000112111bd5cb0112111bfdcb0112111bde
:101de0009ccc0112111bb1cc0112111be3cc0112ce
:101df000111bfbcd0112111bbece0112111b0acf0c
:101e00000112111b4fcf0112111b02d00112111b25
:101e10005dd00112111b6ad10112111bbed101123a
:101e2000111b02d20112111b4cd30112111b61d5df
:101e30000112111b91d50112111b5fd40212111b4b
:101e40006cd40212111b8fd40212111bd2d50212b4
:101e5000111bdfd50212111b0dd60212111b13b478
:101e60000212111b83b40212111bb0b40212111b17
:101e7000ffb40212111b1cb50212111be7b50212ae
:101e8000111b91b70212111befb70212111bfdb704
:101e90000212111b04b90212111b6db90212111b9f
:101ea000eedc0212111b1cdd0212111b4cdd0212b2
:101eb000111b1dd20212111baad20212111bdcd25d
:101ec0000212111b4dd30212111bf1d30212111b6e
:101ed00004d40212111b86100012111b83de0212a1
:101ee000111b4edf0212111bc67f00e06670100846
:101ef000a3e066700a08a3e066700408a3e0662207
:101f0000c3e7960809e7960809e7960809e796a245
:101f1000d265d03322c3e09608a3e09608a3e096ea
:101f200008a3e096a2d265d03322c021c3e096f583
:101f30002108a3e096422108a3e096422108a3e0ed
:101f4000964221a2d265d033e5217001d3d021225f
:101f5000c3e7960809e7960809e7960809e7962275
:101f6000c3e09608a3e09608a3e09608a3e09622b3
:101f7000c021c3e096f52108a3e096422108a3e022
:101f800096422108a3e09645217001d3d021220872
:101f90000808eac0e0ebc0e086f0e7a4fa1809867a
:101fa000f0e7a42afa180986f0e7a42afa180986a5
:101fb000f0e7a42afa1986f0e7a4fbe5f02afa195b
:101fc0000886f0e7a42bfbe5f03afa190886f0e75b
:101fd000a42bfbe5f03afa18180986f0e7a4c5f03f
:101fe0002bfbe43afa1908e7c5f0c6a426f6e5f09b
:101ff0003bfbe43afa1886f0e7a4f6e5f00826f68b
:10200000e43b08f6e43a08f6d0e0fbd0e0fa22e43c
:10201000cfc0e0e4cec0e0e4cdc0e0e4ccc0e075e9
:10202000f020c3e633f608e633f608e633f608e6b2
:1020300033f6181818ec33fced33fdee33feef33b6
:10204000ffc3ec9709ed9709ee9709ef9719191956
:10205000400fffec97fc09ed97fd09ee97fe19196b
:1020600006d5f0beecf709edf709eef709eff71921
:102070001919d0e0fcd0e0fdd0e0fed0e0ff221244
:1020800020e718181812200f1220d6191919221239
:1020900020d6191919080808e618181820e7e012c0
:1020a000200f1220e718181822090909e719191931
:1020b00020e7dc080808e618181820e70302200fbc
:1020c0001220e718181812200f1220e718181812fb
:1020d00020d619191922e4c397f709e497f709e400
:1020e00097f709e497f722e4c396f608e496f60812
:1020f000e496f608e496f6226017080808c6a2e7f8
:1021000013c618c613c618c613c618c613c6d5e01c
:10211000e9226016080808c6c313c618c613c618f5
:10212000c613c618c613c6d5e0ea22700908080807
:10213000226016181818c6c333c608c633c608c6a8
:1021400033c608c633c6d5e0ea22e627f60809e614
:1021500037f60809e637f60809e637f622e026f6ec
:1021600008a3e036f608a3e036f608a3e036f62228
:10217000e026f008a3e036f008a3e036f008a3e07c
:1021800036f022c3e697f60809e697f60809e697bf
:10219000f60809e697f622c3e0c696f608a3e0c65d
:1021a00096f608a3e0c696f608a3e0c696f622e0e7
:1021b00056f608a3e056f608a3e056f608a3e05644
:1021c000f622e647f60809e647f60809e647f60864
:1021d00009e647f622e046f608a3e046f608a3e043
:1021e00046f608a3e046f622e046f008a3e046f0f3
:1021f00008a3e046f008a3e046f022e066f608a354
:10220000e066f608a3e066f608a3e066f622e0f6cc
:1022100008a3e0f608a3e0f608a3e0f622e493f6ac
:1022200008740193f608740293f608740393f62277
:10223000e6f008a3e6f008a3e6f008a3e6f022e043
:10224000faa3e0fba3e0fca3e0fd22eaf0a3ebf09d
:10225000a3ecf0a3edf022cac0e0e6f0a308dafa9e
:10226000d0e0fa22cac0e0e0a30592f0a30592da1a
:10227000f6d0e0ca22cac0e0e493a30592f0a30519
:1022800092daf5d0e0ca225392fefae9fb7921e70f
:10229000f0a309dafae8f0a3ebf9f0a3ecf0a3ed70
:1022a000f0a3eef0a3eff0a3e520f0a3e5f0f0a398
:1022b000e592f0a3e584f0a3e585f0a3e581f0a322
:1022c000e531f0a3e532f0a3e533f0a3d0e0fad096
:1022d000e0f0a3caf0eac0e0e0c0e07a007b0022b0
:1022e0005392fecac0e0ebc0e07921e0f7a309da1f
:1022f000fae0f8a3e0f9a3e0fca3e0fda3e0fea36d
:10230000e0ffa3e0f520a3e0f5f0a3e0c0e0a3e048
:10231000f584a3e0f585a3d0e0f592d0e0fbd0e012
:10232000fae0f581a3e0f531a3e0f532a3e0f5335f
:10233000a3d0e0d0e0e0c0e0a3e0c0e0ea4b700250
:102340007a0122b90010bb0008e88af084f8aaf0ec
:1023500022e4fbc8fa22eb70227b10c833c8c933d1
:10236000c9335007c39ac3dbf280069a50012adbb7
:10237000eac833f4c8c933f4c9fa2275f008e4c8ce
:1023800033c8c933c933c99ac99b5004c92ac93b48
:10239000d5f0ecfbc833f4c8e4c9fa22600d08c6d6
:1023a000a2e713c618c613c6d5e0f322600c08c610
:1023b000c313c618c613c6d5e0f422700422600dfc
:1023c00018c6c333c608c633c6d5e0f41822253272
:1023d00010af08f532400215338008f5324002157f
:1023e00033d2af22c0d0253210af08f532500205eb
:1023f000338008f53250020533d2afd0d0222532d7
:10240000f58210af08f532400215338008f53240ee
:10241000021533d2af85338322c5822532c582c5ea
:1024200083353310af07f5338582328007f5338566
:102430008232d2afc583222532f582e43533f5836b
:10244000222532f584e43533f58522e4735392fe78
:102450002532c582c0e0e53334ffc583c0e0e532f4
:10246000c3958224f810af088583338582328008b3
:10247000858333858232d2afcef0a3e520f0a378f6
:1024800021e608f0a3defaeff0a3e58124faf8e6ee
:1024900008f0a3e608f0a3e608f0a30808e608f0b1
:1024a000a3e608f0a315811581d0e0fed0e0f81571
:1024b0008115811581e8c0e0eec0e0225392fe252f
:1024c00032c582c0e0e53334ffc583c0e0e532c3e6
:1024d000958224f910af0885833385823280088580
:1024e0008333858232d2afcef0a3e520f0a37821ea
:1024f000e608f0a3defaeff0a3e58124fbf8e60896
:10250000f0a3e608f0a30808e608f0a3e608f0a3a5
:1025100015811581d0e0fed0e0f815811581e8c065
:10252000e0eec0e0225392fe853383853282e0a341
:10253000fee0a3f5207821e0a3f608dffae0a3ff90
:10254000e0a3c0e0e0a3c0e0e0a3c0e0e0a3c0e0ff
:10255000e0a3c0e010af0885823285833380088510
:102560008232858333d2afd083d0825392fe021160
:10257000185392fe853383853282e0a3fee0a3f5f3
:10258000207821e0a3f608dffae0a3ffe0a3c0e093
:10259000e0a3c0e0e0a3c0e0e0a3c0e010af088586
:1025a00082328583338008858232858333d2afd0ef
:1025b00083d0825392fe22c0925392fec0d0253225
:1025c000c582c0e0e53334ffc583c0e0e532c39582
:1025d0008224f210af088583338582328008858398
:1025e00033858232d2afc8f0a3e9f0a3eaf0a3ebbf
:1025f000f0a37921e709f0a3d8faecf0a3edf0a35a
:10260000eef0a3eff0a3d0e0f0a3d0e0f0a3d0e091
:10261000f0a3e520f0a3e5f0f0a3d0e0f022539280
:10262000fe853383853282e0c0e0a3e0f9a3e0fabf
:10263000a3e0fba37821e0f608a3dffae0fca3e027
:10264000fda3e0fea3e0ffa3e0c0e0a3e0c0e0a3a1
:10265000e0f5d0a3e0f520a3e0a3f5f0e0a3c0e00f
:1026600010af088583338582328008858333858265
:1026700032d2afd0e0d082d083f592d0e0f8d0e073
:1026800032e584f0a3e585f022e0a3f584e0f5854a
:102690002274048006740280027401c0e0f4041203
:1026a00023fed0e0122257227404800674028002b6
:1026b0007401c0e0f4041223fed0e012226422d0a0
:1026c00083d082e9c0e0e493a3c386f0c5f095f01f
:1026d000f908e493a386f0c5f095f0700be493a39a
:1026e000c3994005e9048002a3e475f002a42582a1
:1026f000f582e5f03583f583d0e0f9e493a3c0e0fb
:10270000e493c0e022ffffffc0e0c0d075d018c046
:1027100092c082c083c0f0123d2b90038512224be1
:10272000e58955ab900389f0e58090038cf0900328
:1027300089e0f4f5899062d0e0f8a2e15027900397
:1027400089e0a2e5501f53abdf9062d0e0a2e0e445
:102750003390038ff0900389e0c2e5f07b307a007c
:102760007906121e85900389e060097b007a007962
:1027700006121e85c2c5d0f0d083d082d092d0d0b0
:10278000d0e032c0e0c0d075d008c092c082c08313
:10279000c0f0123d2b90038512224be58a558d9097
:1027a000038af0e59090038df07b017a00790612a0
:1027b0001e8590038ae0f4f58ac2eb80b9c0e0740c
:1027c000f11225b79061a9e4f0900394e0640f70d2
:1027d00012e5c7f89006a9e0f5c790ff1ce0f4f5f4
:1027e000ae88c7e5bbf9e5bafae9fb900394e0c30c
:1027f00033f8e433f9749528f582740339f583eae4
:10280000f0a3ebf0900394e02410fb7a0079061219
:102810001e85e5a8f8c2af900814e0c2e2f0753456
:1028200000e8a2e7a2e792af7f0102261ec0e0c047
:10283000d075d018c092c082c083c0f0e5d1f875c1
:10284000d100c2c0a2e350097b037a007904121eb2
:1028500085022776c0e0c0d075d008c092c021c0e4
:1028600022c082c083c0f05392fe90057312296d7e
:10287000602b90052ee0700c7401f07b007a0079db
:1028800004121e85ee900573f0e5c1c0e074752555
:1028900021f58274053400f583d0e0800be5c4a2f5
:1028a000e6500690052d7401f002295cc0e0c0d00e
:1028b00075d008c092c021c022c082c083c0f0c2bf
:1028c000e95392fe900530e0fa90052fe09a543fcc
:1028d000f860258a2174312521f58274051229d7e3
:1028e000900530f089c1900571e06870197b027a1b
:1028f000007904121e85800ee5a8f8c2af90081476
:10290000e0c2e31229e38054c0e0c0d075d008c013
:1029100092c021c022c082c083c0f05392fe9005b5
:10292000fd12296d602a9005b8e0700b7401f07bf0
:1029300000fa7904121e85ee9005fdf0e5f9c0e07d
:1029400074ff2521f58274053400f583d0e0800bf7
:10295000e5fba2e650069005b77401f0d0f0d083f5
:10296000d082d022d021d092d0d0d0e032e0f52158
:1029700074012521543ffea3e06e22c0e0c0d07553
:10298000d008c092c021c022c082c083c0f0c2ea79
:102990005392fe9005bae0fa9005b9e09a543ff8d8
:1029a00060258a2174bb2521f58274051229d790f0
:1029b00005baf089f99005fbe06870197b027a018d
:1029c0007904121e85800ee5a8f8c2af900814e0c5
:1029d000c2e41229e380853400f583e0f974012a0a
:1029e000543f22f0753400e8a2e7e433f9e8a2e7a7
:1029f00092af22c0e0c0d075d008c092c082c08320
:102a0000c0f0759800e5a8f8c2af5392fe90081484
:102a1000e0d2e1f0753400e8a2e7e433fee8a2e793
:102a200092af1217b3d0f0d083d082d092d0d0d052
:102a3000e032c082c0835392fe906059e0f8900764
:102a4000e4e028f0906058e0f89007e5e028f09086
:102a5000605a122a6b90605e122a6b90605ce0f8fc
:102a60009007e7e028f0d083d08222e0f89007e6d4
:102a7000e028f022c082c0835392fe9007e4e4f085
:102a8000a3f0a3f0a380de74f71224bc7900121e19
:102a9000379007301232c0eac398f8eb99f9e8246e
:102aa00004fee93400ff90073de0fca3e0fdc3ee27
:102ab0009cef9d402e90073be0fca3e0fd90073f7c
:102ac000e02af8a3e03bf9e8c39cf8e99df99007f8
:102ad000301232b7a3ecf0a3edf090073decf0a379
:102ae000ed8023900730122f8d90073d1230b49067
:102af000073d1232c09007321232b7900739e070aa
:102b0000047402800114f07a2e7b07123abf023b54
:102b10001274f71224bce9600924fe601d14601ac7
:102b20008032900737e0a2e3500990073ae0602432
:102b3000148020c2e2f0d2e38019900737e0a2e2cd
:102b4000500c90073ae06408600ae0048005c2e394
:102b5000f0d2e2f0900738e0700890073674fff08a
:102b6000804890600a122f85703d90618fe0c0e030
:102b700090073ae0f87408c398f8d0e0b8000280f3
:102b800004c313d8fcf52174ff6521700990600a15
:102b9000e4f0a3048010e5212401f8e43400f99066
:102ba000600ae8f0a3e9f0122a87023b1274f712d8
:102bb00024bce924fc600624fe6029800d9007fdfa
:102bc000e06401705f121b91805a900757e0640126
:102bd0007012900751e4f07b09123389fa790012e0
:102be0001e858040900751e0700890074f74fff0f9
:102bf00080327900121e378a218b22a821a92290c7
:102c00000753e028faa3e039fb90618fe0541ff8e6
:102c1000ea28f8eb3400f99007491232b77a477b7b
:102c200007123abf023b1274f71224bc74fe12233f
:102c3000fe1226819007a11232c0e82412fae9346c
:102c400000fb90605ce060088a828b83e0d2e1f058
:102c5000e82430fce93400fde82432f584e934004e
:102c6000f58590605ae0700690605ee060368a827a
:102c70008b83e0a2e14019d2e1f0e82422f582e959
:102c8000122f6a122f7d1223bb8c828d83123ab7ca
:102c9000e40592f0a3f07900853282853383539264
:102ca000fe023b0ae8241ef582e9122f71fea3e022
:102cb000ff858482858583e02ef0a3e03ff08c823f
:102cc0008d830592e0fca3e0fdc30592e09ca3e0a8
:102cd0009d50c388828983a3a3a3a3a3a3a3a3a373
:102ce0008582848583858a828b83e0a2e150047487
:102cf000088002743e0592f07b02888289830592e7
:102d0000a3a3a3a3a3a3a3a3e0fa7900121e85792a
:102d100001808574f51224bc74fe1223fe122681f4
:102d2000122f75240a122f59fc7003022f41ee2432
:102d30002e1237811232c08e828f83a3a3a3a3a346
:102d4000a3a3a38582238583248e828f83a3a3a339
:102d5000a3a3a3a3a3a3aa82ab83ee2434122f6e52
:102d6000687003a3e069701a74026c7003022ed7b6
:102d700074016c607774096c60258a828b8374227d
:102d80008055ec146066147003022ed724fa601c80
:102d900014600c146042147003022f1d022f419026
:102da0006008e0a2e65003022f41802cee24391285
:102db0002f67801388828983a3a3a3e06403700331
:102dc000022f4188828983122f8570e88a828b8343
:102dd000e0641370037416f07b02852382852483dc
:102de000e0fa7900121e857901022f43ee24551274
:102df0003585ee244cfcef3400fdea24fff521eb91
:102e000034fff522e521687003e52269706dee2438
:102e10004d1230138e828f83122f8b8c828d83e024
:102e2000c333f8e433f9e82403f8e934001232ae8e
:102e30009007d2e0a2e050098e828f83a3a31232c2
:102e4000b39007ece4f0a3f0a3f0a37402f09007b2
:102e5000d2e0a2e04003022f41906062e4f08c8255
:102e60008d83e0f875f0e2a4c8aaf075f004a42af6
:102e7000f9e81232a31232b7022f41ea687002eb6e
:102e8000696003022f4175210975220078211226fd
:102e900095ee241bfaef3400fb121edf740212239e
:102ea000e49007d2e0a2e05007eefaeffb121add41
:102eb000e40592f0ee2422123781122f7d1223bbfb
:102ec000ee2430122f67123ab7ee2432122f67e445
:102ed000f0a3f07b08805de8240108e93400f9eef6
:102ee000245c122f6e687003a3e06970547521058d
:102ef0007522007821122695ee2457fcef3400fd50
:102f0000ee2424faef3400fb121edf74021223e4d5
:102f1000eefaeffb121b8be40592f08024eefaef41
:102f2000fb1217b9e40592f005929007d2e0a2e0f7
:102f3000500f7b07852382852483e0fa7900121ed7
:102f40008579008532828533835392fe12268974f7
:102f5000021223e47f04022571f584ef3400f58525
:102f60000592e022ee2414f582ef12357722f582e5
:102f7000ef12357f229007a11238ccee221230e0fa
:102f800074037821221232c4e84922a3a3e028f076
:102f9000a3e039f02274f81224bc74fe1223fe124e
:102fa00026819007a1e0f584a3e0f585122d13e9b1
:102fb000704e122c27e97048e584242ef582e585b1
:102fc000122f712401f0a3e03400f0906008e0c0fb
:102fd000e0e5842436f582e585122f6ad0e0f0e53d
:102fe00084241ef582e5851230160592a3a3e028fd
:102ff000f0a3e039f005929007a1123588123abf8c
:1030000085328285338312268974021223e47f017c
:10301000022571f582ef12357712301d22e0f8a3f8
:10302000e0f9e8c333f8e933f92274f71224bc74e9
:10303000fe1223fe1226818a828b83a3a3ac82ad6b
:10304000839007f1ea241ef584eb122f5cf8a3e0cd
:10305000f9e8c333f8e933f99007d4e0f521a3e0a8
:10306000f5221230ca0592e028f8a3e039f98c82e3
:103070008d831232b79007ec1230bd8c828d831293
:1030800030b49007ee1230bd7a207b4e1223438875
:103090002189228c828d83e09521f0a3e09522f096
:1030a0009007f31230bde8c333f8e933f9e8123280
:1030b0009b023b03c3e098f0a3e099f0221232c4d4
:1030c0009007d41230e01230ca22e88521f0a4c85b
:1030d000aaf08522f0a42afa8521f0e9a42af9228f
:1030e000e0f521a3e0f5222274f71224bc74fe124d
:1030f00023fe122681122f752412122f59a2e3509b
:1031000008c2e3f0059202328f8e828f830592a36c
:10311000a3858221858322906062e060107910127d
:103120001e37852182852283eaf0a3ebf0122d134e
:10313000e96003023298122c27e96003023298906a
:103140006008e0c0e0ee2436122f67d0e0f0906116
:10315000d5e0f89061d7e06805926005e0d2e280a2
:1031600003e0c2e2f00592906062e09007ee601723
:10317000e024c0faa3e03437fb123d009007f312bd
:1031800038d212329b8015123588123cea9007f330
:10319000123019906064e028f0a3e039f0852182b4
:1031a000852283e024fff0a3e034fff0ee242b120d
:1031b0002f6e9007f0f0ee2420122f67122f8560fb
:1031c0004b8e828f83a3a3a3a3a3a3a3a3a3a3e054
:1031d000703aee2432123585ea4b7030ee24391203
:1031e0003585ea4b7026e8240108e93400f9900798
:1031f000d41232b78521828522831232c09007f122
:103200001232b7eefaeffb12302a80279007d474ff
:1032100001f0a3e4f0ee241e1230138521828522f2
:1032200083122f8d9007ec1232c085218285228374
:103230001230b48e848f850592a3a3a3a3a3a30504
:10324000929060641232c07a717b02122343e824a8
:1032500005f8e93400f98584828585831232b78eba
:10326000828f83a3a3a3a312358885848285858357
:10327000e0f8c3ea98eb99a2d265d0335005eaf0a2
:10328000a3ebf01232bdee242e122f67122f8d9079
:1032900007a1123588123abf023b041232a3e8f0ac
:1032a000a3e92224eaf8e93402f990606422f98e55
:1032b000828f83a3a3a3a3e8f0a3e9f0229007d40d
:1032c0001232c422e0f8a3e0f92274f71224bc748d
:1032d000fe1223fe122681803ac2e5f0123376e018
:1032e000f808089007fbe028123388c0e012337614
:1032f000d0e0f09007fbe004f0a3e004f0a3e004ca
:10330000f09007ffe0700c7401f07b007a00790008
:10331000121e8590605ae0f521906002e0a2e05014
:10332000047800800590605de0f89007fce0fae525
:103330002128f8e43400f9e86a7001e96035900763
:10334000fbe004547ff52174802521f5827460121e
:1033500037849007a1e0f8a3e0c82408f584e83496
:1033600000f585e0a2e70592e040030232d9d2e5fc
:103370000232db023b049007fbe0547ff8748028a4
:10338000f582746012357722f09007a1e0f8a3e08f
:10339000c82408f582e812357f2274f51224bc7423
:1033a000fe1223fe122681892105929007a1e0f5e5
:1033b00082a3e0f583858284858385a3a3a3a3a349
:1033c000a3a3a3e0a2e740479007fee0f890605473
:1033d000e0c398f5229007fee02522f0ae82af838d
:1033e0008012ee2439faef3400fb121ab3ea4b6074
:1033f00003121c9985222374ff2523f5220470e211
:10340000e521a2e640097900eefaeffb121c090261
:103410002f43c0e074f11225b78535c675a7007536
:10342000a1007950121e557f0102261ec0d075d012
:103430001875bf00d0d032c0e0c0d075d018c0928f
:10344000c082c083c0f08535c6e591fe759b00f44f
:10345000f5915392fe906002e0a2e0500478008063
:103460000278087900e844015e60031232caeea2d5
:10347000e55004f912339aeea2e75029e5a8f8c204
:10348000af900814e0d2e0f0753400e8a2e7e4332e
:10349000f9e8a2e792afe594a2e24009759403e54a
:1034a00094a2e250faeea2e6400302354b9060612e
:1034b000e0f99007fce4f09007fef09007a11235c8
:1034c000888a828b83a3a3a3a3a3a3a3a3e024043a
:1034d000601014600814700f122b118066122bad4f
:1034e0008061121ad7805c9007d1e06005146014e7
:1034f0008023906060e06480601be0c0e012355f74
:10350000d0e08010906058e0f890605ce028f812fd
:10351000355fe028f0906060e064806016e0c0e015
:103520009007a1e0f8a3e0c82413f582e8122f6aff
:10353000d0e0f09007d2e0a2e050051230e880031e
:10354000122f95122a32121ac58004a2e7500312d4
:103550003b17d0f0d083d082d092d0d0d0e032eae6
:10356000242cf582eb12357ffa74ac2af5827407ad
:1035700012357722f582ef3400f58322f582ef349d
:1035800000f583e022123574e0faa3e0fb2274f721
:103590001224bc74fe1223fe1226819007a1e0fcc7
:1035a000a3e0fd1232bdec2429f582ed122f6aec66
:1035b000242bfaed3400fb8a848b8574016870013a
:1035c000e97012e0f80592e028fac39425402a74c5
:1035d000db2afa8024e0f521e88521f0a4f8aaf09e
:1035e0008521f0e9a42af90592e0fae82af8e934fd
:1035f00000f97a257b00122343eaf074075af87425
:1036000001b800028004c333d8fcfbea131313543f
:103610001ff8ec28f8ed3400f9e82424f582e912cb
:103620003784e05b702a8005e8cac39afaec24e587
:10363000f582ed122f71f8eac39850ec8a21ec253f
:1036400021f8ed3400f9e824c0f582e9122f71fa6f
:10365000ec242cf582ed122f6aea023b0374f61279
:1036600024bc74fe1223fe122681900758e090605d
:10367000026004740e8002740ff0900752e09060b4
:1036800001f09009ff12223f90619512224b121c0b
:1036900015900757e0f5217401652190075070409f
:1036a000e05402f97a597b07121afb900750e0a206
:1036b000e050097ade7b0775214080077ad87b07c6
:1036c000752100a2e150047e8080027e00752306f1
:1036d00078231226997c597d07e5214e44018066a6
:1036e000e0a2e050087ade7b07784080067ad87b3b
:1036f000077800059290077e1226b07c5f7d0774e4
:10370000032521f582740a123784e048f9121b015f
:1037100074011223e4900757e0f8600574026870a2
:103720002e900750e0a2e050087ade7b07784080b8
:10373000067ad87b077800059290079e1226b07c07
:103740007f7d07e84404f9121b0174011223e49001
:103750000750e0a2e0e433f9121af57591009007e2
:1037600058e0906182600474c8800274c0f08532b1
:103770008285338312268974021223e47f03022593
:1037800071f582ef123577059222c082c083539281
:10379000fe906002740ff0900739e004f06403704b
:1037a00002e4f0e02425906000f09009ff12223f2f
:1037b00090619512224b900737e05420f9121af5c8
:1037c000121c15900737e0a2e15004d2f08002c22b
:1037d000f0a2f0e43390600cf0900737e0a2e150e3
:1037e0003575d90da2e55004784080027800e84490
:1037f00003f5d9e0a2e550067ade7b0780047ad88b
:103800007b077906121acb740675d9001470fae595
:10381000e170fc75e19575910090618274c1022a96
:103820006574f81224bc74fe1223fe12268112382d
:10383000bf121c15122f6412223f90619512224b69
:1038400012390512358e1238d7f584ef3400f5851c
:103850008584828585831238f0121c09ee241212a9
:103860002f6ea2e250180592e0f8a3e0f58388825b
:103870000592a3a3e02402f89061d5e028f002307d
:103880000074f81224bc1238bf121c15122f6412d7
:10389000223f90619512224b12390512358e123853
:1038a000d7122f671238f0121c09ee241e122f6750
:1038b0001238d224fcf8e934ff1232ae02300e90f6
:1038c00007a11238cc906002740ff022e0fea3e052
:1038d000ff2212301de822ee242c12357c9060006d
:1038e000f0759100900808e0906182f0ee24392292
:1038f0001232c4ee2437123574e8f0a3e9f07900ef
:10390000eefaeffb22ee243612357c906008f0eee2
:10391000241812357c906005f0ee241912357c9045
:103920006006f0ee241a12357c906007f02274f1e4
:103930001224bc74fe1223fe12268175210075220a
:10394000007ca87d07801b888289831238cc8c82fa
:103950008d83eef0a3eff088828983123ab7882135
:1039600089228c828d83122f784f70398c828d83bf
:10397000eaf0a3ebf08a828b83e4f0a3f0aa21abf8
:103980002285328285338312268974021223e47fd2
:1039900008022571e5232527f8e5243528f98a82d0
:1039a0008b83122f8beef8eff988828983a3a38a89
:1039b000848b850592a3a3e0f523a3e0f52405926b
:1039c000e0c39523f523a3e09524f5248a828b8315
:1039d000a3a3a3a3a3a3e0f525a3e0f526c3e523b2
:1039e0009525e5249526a2d265d033403e8a828b68
:1039f000831232b78a828b83a3a3a3a38582848593
:103a000083851232c0c3e52398e52499a2d265d0fc
:103a100033500d858482858583e523f0a3e524f06a
:103a20008c828d83eaf0a3eb02397c88828983a3a0
:103a3000a3a3a3a3a3e0f527a3e0f528c3e4952758
:103a4000f525e49528f526c3e5259523e526952457
:103a5000a2d265d03350288a828b83a3a3a3a3a3c9
:103a6000a3a3a3e0a2e7500302399488828983a329
:103a7000a3a3a3a3a3a3a3e0a2e75003023947880b
:103a8000828983a3a3a3a3858284858385c3e495c8
:103a900023fce49524fd1238ccc3ec9eed9fa2d20a
:103aa00065d033500b858482858583ecf0a3edf0df
:103ab000e8fce9fd023962e521f0a3e522f0227479
:103ac000f71224bc74fe1223fe122681ea4b6031e9
:103ad000a2afe433fec2af12392e8a828b838016e6
:103ae000aa82ab838582848583850592e0f582a3d3
:103af000e0f58312392ee582458370e4eea2e09270
:103b0000af8001f0853282853383122689740212d8
:103b100023e47f0202257174f51224bc7900121e81
:103b2000378a238b247977121e559061b1e4f0e037
:103b300070f87403f0e0640370f89007a81232c0c4
:103b40009007a11232b7e8497012123c57e594a2cf
:103b5000e24003023c51759400023c518882898303
:103b60001235889007a8eaf0a3ebf088828983a336
:103b7000a31230e088828983a3a3a3a3e02521f8c0
:103b8000a3e03522f9e824fdfee934ffff906060f0
:103b90007480123388240460121460051460078056
:103ba0004712365d805212378a804de521c3952336
:103bb000e5229524c39400a2d265d0335025e52395
:103bc0002401f521e5243400f522c3e5219ee522f8
:103bd0009f400ae5212401fee5223400ff900730d2
:103be000123ab7121c1b80109007d2e0a2e05005d9
:103bf0001238218003123881aa21ab227930121e9b
:103c000049eefaeffb7940121e497954121e55e530
:103c100021c39523f8e5229524f9c3e89401e9949a
:103c200000a2d265d033500c121c2de5e170fc755a
:103c3000e121801d9006a8e0a2e04012aa21ab225b
:103c4000121e439007e812224b123c578003121cad
:103c50002d121d0b022f54e5a8f8c2af900814e0f6
:103c6000c2e0f0753400e8a2e7a2e792af220000bc
:103c7000853487c2af22c0e0c0d075d018c092c0d2
:103c800082c083c0f074fc1223ce5392fe900815bc
:103c9000e0601c121aef9006a8e054117008e5c607
:103ca00054384487f5c6900815e4f0c2c78026c290
:103cb000c7853282853383aa82ab83121c27e964cd
:103cc0000170129008157401f085328285338312d9
:103cd000223f121cff75340074041223e4d0f0d08c
:103ce00083d082d092d0d0d0e03275c3007420c38c
:103cf0009afa744e9bfbeaf5a2ebf5a35392fe22cf
:103d0000c02175c301e5a2f521e5a375c300f9e55e
:103d1000212420f8e9344ef9e8c39af8e99bf9e840
:103d2000f5a2e9f5a3d0215392fe22c082c083748c
:103d3000fc1223cee5a8f8c2afe595853282853323
:103d4000835392fef0e596c0e07401122437d0e070
:103d5000f0e597c0e07402122437d0e0f0e8a2e763
:103d6000a2e792af7403122437e4f08532828533e0
:103d70008312223f74041223e4d083d082220001f4
:103d8000000002000000c913000000010000000054
:103d9000f31300000002000000000b1400030003f6
:103da00024000000e7130002000404000000ed13eb
:103db00000000005000000003b14000000060000a9
:103dc0000000a114000500072600000053140000a5
:103dd000000800000000dd1400020009820000005d
:103de00035140007000a2a000000e3140007000b46
:103df0002a000000e9140000000c00000000ef148d
:103e00000002000d2200000029140003000e22020f
:103e100000002f1400000100000000004d140000fd
:103e2000010100000000d1140000010200000000a8
:103e3000411400030103840000005f140002010428
:103e4000040000005914000201050400000047149a
:103e50000001010602000000f913000501078600b9
:103e60000000ff13000501082600000005140004ef
:103e7000020024080000ad14000402014400000008
:103e800081130002020204000000871300030203f2
:103e900022080000751300020204220000007b13b8
:103ea000000103000200000063130001030102008f
:103eb0000000d71400090302424404005d1300010e
:103ec000030302000000e1130001030402000000ec
:103ed000cf130002030582000000d5130001030682
:103ee00002000000db13000103070200000057136b
:103ef0000002030882000000271300080400424467
:103f00000800691300060401428400008d130006b6
:103f100004024284000099130005040342040000d7
:103f2000931300030404420000009f1300040405df
:103f300042080000ab130004040642080000c3134b
:103f400000010407020000006f1300030408420090
:103f50000000a5130006040942840000b11300020a
:103f6000040a22000000b7130002040b82000000c4
:103f7000bd1300020500220000002314000105010a
:103f800002000000b3140001050202000000bf148b
:103f90000003050322020000b914000505046200b5
:103fa0000000c51400000505000000009b1400017e
:103fb0000506080000006b14000206002200000045
:103fc00065140002060122000000771400010602b9
:103fd000020000007d14000f06032a4444008f14e1
:103fe0000000060400000000951400080605444483
:103ff0000000831400030606220200008914000555
:1040000006074402000017140005060844020000d9
:104010001d14000206098200000011140007060aa0
:104020002a000000711400030700220200002b1573
:1040300000060701260200003715000307022202ce
:104040000000311500020703220000003d150002a8
:1040500007042200000043150003070522020000a8
:10406000491500030706220200004f15000207074a
:1040700022000000551500060708222222006715bd
:1040800000020709820000006d150003070a2202e2
:1040900000005b150003070b2208000061150001fa
:1040a000070c02000000a7140005070d22420000c3
:1040b00073150002070e220000000d150002070f05
:1040c000220000001315000107100200000019155e
:1040d00000000711000000001f1500010712020078
:1040e000000025150003080022020000391300011a
:1040f0000801020000003f13000008020000000059
:10410000451300000803000000004b1300000804e2
:1041100000000000511300010805080000003313df
:1041200000010806020000002d1300010900020032
:104130000000791500040901060000007f15000148
:1041400009020800000085150000090300000000b6
:104150008b150000000000000000f51400000001b5
:1041600000000000f514000600020a000000f5142b
:104170000002000304000000f51400030004240002
:104180000000f5140005000522220200f5140001cc
:10419000000602000000f51400050007860000007c
:1041a000f514000c000844442402f5140002000930
:1041b00004000000f5140002000a04000000f514d9
:1041c0000002000b04000000f5140000000c0000c9
:1041d0000000f5140003000d84000000f514000237
:1041e000000e04000000f5140000010000000000b3
:1041f000f5140000010100000000f51400000102a8
:1042000000000000f5140002010304000000f51492
:104210000003010484000000f51400000105000003
:104220000000f5140002010604000000f51400026d
:10423000010704000000f514000101080800000057
:10424000f5140002020004000000f514000702014a
:1042500044840000f5140005020244080000f5142f
:104260000000020300000000f5140000020400003a
:104270000000f5140003030042000000f5140002e2
:10428000030132000000f5140003030242000000a5
:10429000f5140003030342000000f51400020304b8
:1042a00082000000f5140003030542000000f5142d
:1042b0000003030642000000f5140001030702009a
:1042c0000000f5140001030802000000f5140003cb
:1042d000040042000000f514000304014200000045
:1042e000f5140003040242000000f5140003040367
:1042f00042000000f5140003040442000000f5141d
:104300000003040542000000f51400030406420007
:104310000000f5140002040704000000f514000377
:10432000040842000000f5140003040942000000e4
:10433000f5140003040a42000000f5140003040b06
:1043400042000000f5140003050042000000f514cf
:104350000000050100000000f51400020502040041
:104360000000f5140000050300000000f514000231
:10437000050404000000f51400010505020000001a
:10438000f5140000050600000000f514000006000a
:1043900000000000f5140002060104000000f514fe
:1043a0000002060204000000f514000306032400c6
:1043b0000000f5140002060404000000f5140003d8
:1043c000060524000000f5140002060604000000a3
:1043d000f5140002060704000000f51400020608a8
:1043e00004000000f5140002060904000000f514a2
:1043f0000002060a04000000f51400020700040091
:104400000000f5140002070104000000f51400028a
:10441000070204000000f514000207030400000076
:10442000f5140002070404000000f514000207055b
:1044300004000000f5140002070604000000f51453
:104440000004070724020000f51400020708040016
:104450000000f5140004070924080000f514000307
:10446000070a84000000f5140001070b0200000099
:10447000f5140000070c00000000f5140002070d01
:1044800004000000f5140002070e04000000f514fb
:104490000002070f04000000f514000007100000e0
:1044a0000000f5140003071124000000f5140002b9
:1044b000071204000000f5140000080000000000ce
:1044c000f5140000080100000000f51400020802c5
:1044d00004000000f5140000080300000000f514bb
:1044e0000001080408000000f51400010805080098
:1044f0000000f5140000080600000000f51400009c
:10450000090000000000f514000209010400000089
:10451000f5140002090204000000f514000209036a
:1045200004000000f514800c000044442402f5143b
:104530008001000108000000f51480020002220042
:104540000000f5148002000322000000f51480042e
:10455000000444000000f514800000050000000085
:10456000f5148002000604000000f5148003010029
:1045700084000000f5148007020022440800f514ae
:104580008006020142240000f51480030202240088
:104590000000f51480100300222a4424f51480063c
:1045a000030122440000f51480020302820000008f
:1045b000f5148002030382000000f5148003030455
:1045c00042000000f5148003040042000000f514ce
:1045d0008005040142040000f514800604024284b0
:1045e0000000f5148007040342240800f514800439
:1045f000040442080000f51480050405428200000e
:10460000f5148002040682000000f5148003050002
:1046100022080000f5148003050142000000f51493
:104620008005050262000000f51480010503020008
:104630000000f5148004050422220000f514800b0c
:104640000600232a8200f5148002060122000000e1
:10465000f5148007070026220000f51480010701e9
:1046600002000000f5148003070252000000f51458
:104670008005070326000000f514800409000600e9
:104680000000f51400000000000000000000b70862
:104690000fd50809e70805f1080903090c1b0907ec
:1046a00029090b3f091365090773090474f01224e3
:1046b0004d74f01223cee5c7f5289006a9e0f5c7a2
:1046c00075211075220078211226957c1e7d0774b5
:1046d00002122437aa82ab83121edf74021223e473
:1046e00078211226957c007d007a1e7b07121ee53c
:1046f00074021223e47521008058852182a882e883
:1047000075f075a4faabf09006a412484a2474f52b
:1047100082eb12757da2e050377f008f82ac82e879
:1047200075f03ba4faabf090071412484a2cfaeb50
:104730003400fbea241af582eb12757dfa741e2c04
:10474000f582740712757d4af00fefc3941040cbc9
:1047500005219006a3e0f8e521c398409d7521004e
:10476000852182a882741e28f582740712757dfa4d
:10477000853282853383e58228f582e58312757d53
:104780006af00521e521c3941040d57521008521eb
:1047900082ae827f00853282853383e5822ef58268
:1047a000e58312638da3a3a3a3e0f885328285334a
:1047b00083e5822ef582e58312757d48f5226076c9
:1047c0008f27e522a2e0505b7523018f24e527782f
:1047d000231223bba823741e2ef582740712757d45
:1047e00058600479018002790074262ef5827407de
:1047f00012757d586004e9d2e1f98e238f24740389
:1048000078231223bb852725e5232525fae52434c3
:1048100000fb74a02af58274f73bf583e0fa7b0075
:104820001216450527e522c313f522e527c3940890
:104830005004e522708c0521e521c3940850030241
:10484000478e8528c77410024dfd12484e22e02a7b
:10485000faa3e03bfbea2274f612244de975f03b23
:10486000a4faabf01217d1900714126fa9e5c7ff95
:104870009006a9e0f5c790f79e126019e4c39af577
:1048800021741f9bf52278211226957c007d001251
:104890001ee574021223e48fc77cd77d097aa67bbc
:1048a00006121ab979087c167d077a007b00121c63
:1048b000e1e96408601b7521087522007821122641
:1048c000957c007d007a167b07121ee57402122388
:1048d000e402509d74f012244d74fe1223fe122641
:1048e000818a278b28126b940592a3858221858368
:1048f00022126019ea4b60158e828f83a3a3a385d1
:104900008223858324c3e09aa3e09b500879011297
:104910001969024a0205929009db1226a87b070555
:1049200092126b8c121e7974041223e48e828f8390
:10493000a3a3a3a3a38582258583268e828f83e0ec
:1049400014604a14606414602c14600d1470030227
:1049500049e824fe607d024a02852384852485057a
:10496000921226ac8521828522830592124a1f125b
:1049700018250249fb7825122695852384852485f0
:1049800005921226ac124a0c1218198016782512bc
:10499000269585238485248505921226ac124a0c1f
:1049a0001217ef74041223e4805f7825122695ee27
:1049b0002417f584ef12786705921226ac852384bc
:1049c0008524851226ac124a0c1217dd74061223b8
:1049d000e48036ee2417f582ef12757df523a3e00f
:1049e000f524e52345247008124a1912181f80196e
:1049f0007823122695124a191217f574021223e42d
:104a00008007aa27ab28121c99027053ee2415f5d3
:104a100082ef1278950592e0f98521828522831232
:104a200064c4aa27ab282274f612244d74fe122304
:104a3000fe122681eafeebff8921126b8a121e6d9f
:104a4000125089242af582e58512757d602205922f
:104a5000e024fd600c24fc70147407652170118043
:104a60000c740a65216006740165217003752100cc
:104a7000e4439201f00592f09006a2e0f522ac2109
:104a8000eefaeffbe0f912160f9006a2e065226045
:104a900005a9221218a902508f74f612244de9ffbd
:104aa0008c218d22740a122437e0fd9006a2e0fecc
:104ab0007821122695effc9006a2e0f91215c17438
:104ac000021223e49006a2e06e6005eef91218a926
:104ad00002509d74f212244d74fe1223fe122681a0
:104ae0008a258b26124b79121e6d9006a2e0ff8557
:104af0008482858583a38582238583247821122659
:104b000095eefd7c04852382852483124c111215b9
:104b1000c174021223e49006a2e06f6005eff9125f
:104b200018a9e5842417f8e5853400f98e218882d8
:104b30008983e02521f0a3e03400f074166e70172d
:104b400088828983c3e09416a3e094004009aa25d3
:104b5000ab2612196380197900852382852483127c
:104b60006019121969e40592f0aa25ab26121c9966
:104b70008532828533830278498c218d22e9fe12a9
:104b800061807b079006a2e0fa79012274f4122476
:104b90004d74fe1223fe1226818a238b24124b7938
:104ba000121e6d0592e0f8740768700feef9ac21e3
:104bb000ad22aa23ab24121975804d740a680592a0
:104bc0009006a2700fe0ffeefcaa21ab22e0f912e2
:104bd00015c7801de0ff7821122695eefd7c00852b
:104be0008482858583a3124c111215c1740212238d
:104bf000e49006a2e06f6005eff91218a9e40592af
:104c0000f0aa23ab24121c99853282853383026972
:104c10004f127fc09006a2e0f92274f012244d7466
:104c2000fe1223fe12268174fe1223ce8a278b28c1
:104c30008a828b83a3a3a3a3a3a3a3a3a385822573
:104c4000858326126b8a121e6d852782852883a391
:104c5000a3e024faf52312500885258485268505ce
:104c600092a38532828533830592124fe27e0080c3
:104c70004b9006a2e0ffe5842402f521e58534008f
:104c8000f522782112269574fe29fd7c0385848205
:104c9000858583124c111215c174021223e490060b
:104ca000a2e06f6005eff91218a985258285268399
:104cb000e0f5212efee58425211278638525828585
:104cc0002683e0f9eec3952340a78921e523c39508
:104cd00021124fd312501b12196302704e74f0123e
:104ce000244d74fe1223fe12268174fe1223ce8af6
:104cf000238b24126b7f121e6d852382852483a350
:104d0000a3e024faf52212617c858427858528e5b5
:104d100027242af582e528126b7b7401f0126ff7c5
:104d2000640170047e0280027e107521008010e014
:104d30006f6005eff91218a974022e2521f521e5ff
:104d400021c39522505a5392fe9006a2e0ffa8215b
:104d5000853282853383126aa8127867eef525784a
:104d600025122699e5842403fce5853400fd124dc7
:104d7000e105929006a2e0f91215d974011223e41c
:104d8000e99006a270a9e06f6005eff91218a985f5
:104d90002782852883e4f0aa23ab24121c99803e45
:104da000852221e52124fef8e434fff98e21e8c3b1
:104db0009521f8e99400f98532828533835392fe78
:104dc0001269e22401f8a3e03400f98527828528de
:104dd000830592a31264b5aa23ab2412196302704f
:104de0004e0592a3e0faa3e0fb2274021223e485ad
:104df00032828533835392fe12268974021223e491
:104e00007f0802252574f012244d74fe1223fe1231
:104e1000268174fe1223ce8a278b28126b7f121ee6
:104e20006d852782852883a3a3e024fbf521125bef
:104e30009e0592900714125fea858225858326e5f8
:104e400025242af582e526125bf77f00800de06eaf
:104e50006005eef91218a974042fffefc3952150d5
:104e60005feff8853284853385124ef0126b7b85b7
:104e7000828485838505929006a2e0fe75220278e1
:104e800022122699e5252417f523e5263400f5247a
:104e90007823122695124ff11215d374031223e4ce
:104ea000e99006a270a8e06e6005eef91218a985d7
:104eb0002582852683e4f0aa27ab28121c99802d31
:104ec000a821853282853383e028f8a3e0126fb2ef
:104ed00024fef582e934fff5831250308525828562
:104ee0002683a31264b5aa27ab2812196302704e59
:104ef0000592e028f582a3e02274f012244d74fe9e
:104f00001223fe12268174fe1223ce8a278b288a52
:104f1000828b83a3a3a3a3a3a3a3a3a38582258595
:104f200083268a828b83a3a3e024faf521126b8a5d
:104f3000121e6d125008853282853383124fe27f34
:104f4000008012e06e6005eef91218a985258285b1
:104f50002683e02fff852582852683e0f8efc39521
:104f600021505b8f23e5252523fae5263400fb8ab3
:104f7000828b83a38582848583859006a2e0fe745c
:104f8000fc28f5227822122699ea2405f523eb3431
:104f900000f5247823122695124ff11215d37403cd
:104fa0001223e4e99006a2709ae06e6005eef91211
:104fb00018a91275fcaa27ab28121c998012882305
:104fc000e521c39523124fd3a3a312501b121963db
:104fd00002704ef895e0f9e52528f582e52639f5c9
:104fe0008322127f15242af582e81278957401f045
:104ff00022858482858583a3a3125ff3faa3e0fb55
:1050000005929006a2e0f9221275e612500f228551
:105010003282853383e8f0a3e9f022a31250308571
:1050200032828533831275d8125015aa27ab2822f5
:10503000e02401f8a3e03400f92274f612244d7440
:10504000fe1223fe1226811218a9e970047a8680c6
:105050001c12508924161278630592e0a2e04004e5
:105060007a818009121c93ea4b70067a827b018058
:105070000d0592e0c2e0f01218317a007b00853213
:10508000828533835392fe800c126180e5842285f1
:10509000328285338312268974021223e47f02024e
:1050a000252574f212244d74fe1223fe122681ea85
:1050b000feebff8c258d261218a9e970047a8680f4
:1050c0001212541560047a818009121c93ea4b7005
:1050d000067a827b0180307410122437e0f8c39482
:1050e00014500488228003752214852523852624e4
:1050f0007823122695a922eefceffd1218137402f4
:105100001223e47a007b0002784074f012244d747c
:10511000fe1223fe1226818a278b28ecff1218a983
:10512000e970047a86802512541560047a81801c07
:10513000efa2e04005c3940450047a80800e121c54
:10514000938a258b26ea452670067a827b01803475
:10515000efc394165004effe80027e16740a1252ba
:10516000a31226a87b070592126b8c121e79740479
:105170001223e4eef9ac27ad28aa25ab26121807b6
:105180007a007b00024def74f212244d74fe12235c
:10519000fe12268174fe1223ce8a238b24ecfeedb0
:1051a000ff7412122437e0f525a3e0f5261218a9a2
:1051b000e970047a86801d12541560047a81801487
:1051c000e523452470047a80800a121c93127f75af
:1051d00070067a827b01805d7414122437e0f8c374
:1051e000941250048821800375211274080592f0ee
:1051f000a3e523f0a3e524f09009db1226a87b07a2
:105200000592126b8c121e7974041223e478251215
:1052100026958e258f267825122695a921ac23adbb
:105220002474041224371260191217fb7404122319
:10523000e47a007b0074021223e402784074f412d2
:10524000244d74fe1223fe1226818a221218a9e927
:1052500070047a86801a12541560047a81801112c3
:105260001c938a238b24ae23af24ee4f70067a82e0
:105270007b01802c74091252a31226a87b07059289
:10528000126b8c121e7974041223e4e522600479f7
:105290000180027900eefaeffb1218017a007b0020
:1052a0000269460592f0a3e4f0a3f09009db2274b2
:1052b000f012244d74fe1223fe122681eafeebff4b
:1052c0008c278d281218a9e970047a86801f125441
:1052d0001560047a818016ee4f70047a80800e1279
:1052e0001c938a258b26ea452670067a827b0180ec
:1052f000547412122437e0f8c394145004882180a7
:105300000375211474060592f0a3eef0a3eff0905c
:1053100009db1226a87b070592126b8c121e79748a
:10532000041223e48527238528247823122695a9af
:1053300021eefceffdaa25ab2612180d74021223f4
:10534000e47a007b00024def74f412244d74fe12d7
:1053500023fe122681eafeebff1218a9e970047af7
:1053600086801a12541560047a818011ee4f700401
:105370007a808009121c93ea4b70067a827b018046
:105380002a7407125410eef0a3eff085848285850d
:1053900083a3a3a3eef0a3eff0e5842417f582e541
:1053a00085127ef01219637a007b0002694674f45c
:1053b00012244d74fe1223fe122681eafeebff1228
:1053c00018a9e970047a86801a12541560047a814b
:1053d0008011ee4f70047a808009121c93ea4b70a2
:1053e000067a827b0180267405125410a3a3a8823a
:1053f000a983eef0a3eff0888289831264cd059231
:10540000a3e8f0a3e9f01219637a007b0002694671
:10541000125587a3221261800592e02274f21224b1
:105420004d74fe1223fe1226818a218b22ecfeeda2
:10543000ff1218a9e970047a8680121254156004cc
:105440007a818009121c93ea4b70067a827b018074
:105450001d7404125410e521f0a3e522f00592a377
:10546000a3a3eef0a3eff01219637a007b00027899
:105470004074f012244d74fe1223fe1226818a27f6
:105480008b288c258d261218a9e970047a86802e27
:1054900012541560047a8180257414122437059201
:1054a000e0ff74026f600974106f60047a80800ef0
:1054b000121c938a238b24ea452470067a827b018e
:1054c000803474030592f08f2175220005927821b3
:1054d00012269574141224371255ac121edf740272
:1054e0001223e41254f98584828585831255931220
:1054f00019637a007b00024defe5842415f582e5ff
:1055000085127895eff02274f012244d74fe122368
:10551000fe1226818a278b288c258d261218a9e950
:1055200070047a86802e12541560047a8180257466
:10553000141224370592e0ff74026f600974106f33
:1055400060047a80800e121c938a238b24ea4524ff
:1055500070067a827b01802c8f21752200782112bf
:10556000269574141224371255ac121edf740212e1
:1055700023e41254f97401125587125593121963da
:105580007a007b00024def0592f085848285858349
:10559000059222a3e527f0a3e528f00592a3a3a393
:1055a000e525f0a3e526f0aa23ab24221264c4e586
:1055b000842405fae5853400fb2274f012244d742e
:1055c000fe1223fe12268174fe1223ce126fa38ccc
:1055d000278d287414122437e0fea3e0ff1218a9c7
:1055e000e970047a86802a12541560047a81802139
:1055f00074181224370592e0f522c3941140047afe
:1056000080800e121c938a258b26ea452670067a26
:10561000827b018069e5842417f582e585126b7b26
:10562000eef0a3eff074020592f0e5842415f58204
:10563000e585126b7be5220592f0f5237524007851
:105640002312269574181224371255ac121edf74db
:10565000021223e48532828533831264cd858482ed
:10566000858583a31264b50592a3a3a3e527f0a3c0
:10567000e528f0aa25ab261219637a007b00024dbb
:10568000ea74f112244d74fe1223fe12268174fc7a
:105690001223ce7402122437126fa9e5c7f52790a2
:1056a00006a9e0f5c77402122437127f24853284dc
:1056b000853385e5820592f0a3e583f08532828506
:1056c000338305921266a9f8740212243712581116
:1056d000059290f79de0f525ff741dc39af5268e7f
:1056e000228e2180080522efc313ff052190f79c2d
:1056f000e0fce521c39c5044eec39526503e125871
:105700002370e8efa2e050dfa3a3a3a3a3e0640209
:1057100070d375230275240078231226951264b97c
:105720008e23e5842523126faf2402fae93400fbaf
:10573000121edf74021223e40e0e80abee6013859e
:105740008482858583a3ef6004740280027403124f
:1057500057fae52270030257f2853282853383536c
:1057600092fe126ffdf8741dc398fa95e0fbc3ea30
:105770009410eb9400a2d265d033407674021224c8
:1057800037125811af258e218006efc313ff052174
:10579000e521c39c5042e526603e5392fe125823f9
:1057a00070ecefa2e050e3a3a3a3a3a3e064107006
:1057b000d97523108e2478231226951264b9e584b6
:1057c0002402fae5853400fb121edf74021223e482
:1057d0007e1074ff2522600e858482858583539216
:1057e000fea374068009858482858583a3740712cd
:1057f00057fa8527c77404027713f074012ef80551
:1058000092f008853282853383059212700128f068
:10581000220592126aa83400f5850592a3a3a3a3da
:105820007e002290f7961264d1e52175f006a4fa65
:10583000abf0e82afae93bfb8a828b83e02274f022
:1058400012244d74fe1223fe12268174f91223ce07
:10585000853282853383ecf0a3edf08a278b28e92b
:10586000fe7522001275fc8a828b830592a3a3a386
:10587000a385822385832474026e600caa23ab2443
:10588000121eafe960027e0274191224371264cd31
:1058900074191224371264b57419122437126a89e4
:1058a00074100592f074026e6003025932852382ef
:1058b00085248305921264cde870037428697056bc
:1058c0007f007419122437126a89740a0592f0e570
:1058d000c7c0e07404122437d0e00592f09006a906
:1058e000e0f5c71275fc059290f79ce0f526f5826d
:1058f000ac8285278285288312770a5003025a6c6e
:10590000852782852883a3a3126019c3ec9ae49ba0
:1059100050258c25802474016870037428697004f4
:105920007f01809e740368700374286970047f028d
:1059300080907900025a79eaf525e814f521801261
:105940007402122437127f21e521f0a3e4f015211f
:105950000521e521c395254003025a5d1264ca74ee
:10596000051224371264b5852182a882e875f006f5
:10597000a4faabf074051224410592e02af582a343
:10598000e03bf583ac82ad830592e06f70c2852267
:1059900082aa828532848533850592e02a125a7e56
:1059a0007402122441e5820592f0a3e58312755634
:1059b000e02404f527126ff7f5236009e527652336
:1059c0006003025a5d852723ea1275634003025a79
:1059d0005de527f0eaf522e8240108e43400f974d3
:1059e000021224370592126a89e80592f0a3e9129f
:1059f000755612626f1226958c828d83a3a3a31213
:105a00007f1b1224371275a2121edf74021223e4c8
:105a10008029e52175f006a4f8a9f0740512243751
:105a20005392fe1266a0f870030259407401687028
:105a300003025940e86f70030259400521e521c374
:105a4000952640cee5266521600302594074021276
:105a50002437127f2174fff0a3f0025950e5226031
:105a60000b74191224375392fe1276027404122416
:105a7000375392fee0f5c7a9227407024decf58278
:105a8000a3e01278950592a32274f712244d74feb8
:105a90001223fe122681124b7f121e6d0592e0f832
:105aa000740668600a7408686005740968701ce40c
:105ab000125bee7c00124de10592e0f912160f9098
:105ac00006a2e06e6005eef91218a9026a5d74f292
:105ad00012244d74fe1223fe1226818a258b26ec99
:105ae000ffedfeec24010ce43400fd1217e38a8480
:105af0008b8574101224371264c0ec4d701deff9c1
:105b0000121a4de9fec3941540027e147d00eefc8e
:105b1000eff9aa84ab85121a65801aeec39415407a
:105b2000027e148e217522007821122695121edf26
:105b300074021223e4eef9aa25ab261217e9024bf0
:105b400070853282853383026a6674f712244d743d
:105b5000fe1223fe1226818a848b85125b8c6023c1
:105b60007b08126b8c121e6d125b8cfae4f09006af
:105b7000a2e0fef91215cd9006a2e06e6005eef9e6
:105b80001218a9aa84ab85121c9980b5125b9e904d
:105b900007141269dd2419f582e912758122125b5e
:105ba000a222125ba6229006a2e075f03ba4f8a9ff
:105bb000f02274f712244d74fe1223fe1226811275
:105bc0005415640b6025e5842419f582e585125b84
:105bd000f712617c740b0592125beef912160990b4
:105be00006a2e06e6005eef91218a9026a5df005e2
:105bf000929006a2e0fe2212789574010592f0229e
:105c000074f112244d74fe1223fe12268174fc12cc
:105c100023ce7402122437126fa989228c27e975ca
:105c2000f006a4f8a9f090f796127380f585059216
:105c3000a3a3a3e0f582a3e0f58385828485838511
:105c4000a3e0f80592e0f526752100740758f97471
:105c500001b900028004c333d9fcf525e8131313fe
:105c6000541ffe804c05929009db1226a87b080584
:105c700092126b8c121e7974041223e47401252293
:105c8000c0e012695c2419126b78d0e0f074021243
:105c9000244105921226acad27ac22791d74021264
:105ca000243705921260191219f374021223e405c5
:105cb000219006a3e0f8e521c3984003025d5b85cf
:105cc0002182a882e875f075a4faabf09006a412c0
:105cd0005d69e5842474f582e58512757da2e05046
:105ce000cee89006a2f09006a0e584f0a3e585f04a
:105cf000e526a2e45031e8125d77f8eb39f9e824a3
:105d00001a12757a5525601f121c93ea4b604c7469
:105d10000212244105921226acad27ac22791b1247
:105d200019f374021223e4e526a2e550829006a23c
:105d3000e0125d77faeb39fbea2422f582eb12756b
:105d40007d55257003025caf125b8f6003025caf70
:105d5000121c93127f756003025c6574041223e4c5
:105d600085328285338302771f125d6d22e02af52a
:105d700084a3e03bf5852275f03ba4f8a9f09007d9
:105d800014e02efaa3e03400fbea282274f0122477
:105d90004d74fe1223fe12268189218c278d2875d1
:105da00022007412122437e0fea3e0ff8e828f835c
:105db000e0f525e5c7f524126002f52690f79ce092
:105dc000f8e526c39840097522018e828f838023cf
:105dd000e5261264d770098524c77a887b0180493b
:105de000a926121a4de98e828f83f0c395215007a0
:105df000752207e4f08022a821e0c398f0f8c3954b
:105e000025500488238003852523e523f0ad21fc5c
:105e1000a926aa27ab28121a658524c7e5226005a2
:105e2000fa7b0480047a007b00024def74f61224a2
:105e30004d74fe1223fe122681eaf8ecfaedfb7592
:105e40002100e5c7fe9006a9e0f5c7e814fd740c33
:105e50001224371264cd90f79ce0fcedc39c400bfc
:105e600075210188828983e4f0801eed126fce05d2
:105e700092e0fca2e75004741080027402888289c8
:105e8000830592f0ecf9121ebb8ec7e521a2e0500b
:105e900005fa7b0480047a007b0002508f74f012b4
:105ea000244d74fe1223fe12268174fe1223ce8529
:105eb0003282853383ecf0a3edf089257e00125ffa
:105ec000fcf52290f79ce0c395225003025fdde5cc
:105ed0002275f006a4f8a9f0059290f796125feaf1
:105ee0008582278583280592a3a3e0fc24fa600a13
:105ef00014600724fb6003025fdb7414122437e094
